:020000040800F2
:1000000058040020692400087D0700087F070008C5
:1000100000000000000000000000000000000000E0
:100020000000000000000000000000008107000840
:10003000000000000000000083070008850700089A
:100040007B2400087B2400087B2400087B24000814
:100050007B240008110800087B2400087B2400088A
:100060007B2400088D0700087B2400087B240008FF
:100070007B2400087B2400087B240008A5070008D7
:10008000E90700087B240008000000007B2400082A
:100090007B2400087B2400087B2400087B240008C4
:1000A0007B2400087B2400087B2400087B240008B4
:1000B0007B240008000000007B24000800000000F2
:1000C0000448854602F0C6FA00480047A30300082A
:1000D000C046C0465804002008B505216846017096
:1000E000032141700121817000F0E2FD08BD1CB5C3
:1000F0000021084601F048F80121002268460091DD
:1001000002710C224271817100F0C4FC1CBD1CB54F
:100110000121480400F0ACFF0121084600F0B1FFC6
:10012000002069460871C871012000900920C006AE
:1001300000F037FD1CBD10B5FFF7E9FFFFF7D7FF53
:10014000FFF7CAFF10BD30B5012187B0480200F0AB
:1001500098FF002001216A4600901171C14C029065
:10016000049005906946204601F000FF204601F00A
:10017000A0FF0121204601F07EFF0121204601F071
:1001800010FF204601F0B1FFB74D2046294601F08F
:10019000CEFF0028F9D007B030BD38B51020694631
:1001A0000870012048708870684600F081FDAF4CEF
:1001B00001221146204601F0C3FB0121204601F037
:1001C000C4F838BD30B589B0684601F079F801212E
:1001D000022000F05FFF002469460C814C80A44897
:1001E0000190A24D0C80284601F03EF8302069466F
:1001F00088810120C88105940C8303A9284601F059
:100200003FF90121284601F0A0F809B030BD38B50A
:100210000F2168460170002141700121817000F0BA
:1002200047FD012294071146204601F089FB012178
:10023000204601F08AF838BD0EB50121084600F0CD
:1002400029FF00206946088148808A4801908A4831
:1002500008800120800701F007F80EBD10B586B0B8
:100260001421684602F0EBF90321890368460180F6
:10027000FF21053141800F21090281800221C180C7
:1002800000210181418120228281C1817B4C69460C
:10029000204601F098FF0121204602F050F801218C
:1002A000204602F055F806B010BD1CB501214804E7
:1002B00000F0DEFE01206946087100228A71B0213B
:1002C000009169464871C8710920C00600F069FCB8
:1002D0001CBD7CB50121C80400F0CAFE0225694698
:1002E0000D7180200090664E03244C71304600F062
:1002F00058FC01220721304600F0BFFC69460C7112
:1003000000954C710020C871304600F04AFC7CBD5D
:1003100010B5FFF7DEFFFFF7C8FFFFF79FFFFFF7FE
:100320008BFFFFF774FFFFF74DFFFFF736FFFFF777
:100330000AFFFFF700FF002000F082FA012000F022
:100340007FFA00F0D3F800F05EF910BD10B501217E
:100350008CB0084600F08CFE4A4C204600F0FEFAB5
:10036000494800904948019000210A2003908020CC
:1003700005900491029180010691079108910A91DC
:1003800009906946204600F01BFB3F4801224021AE
:10039000243801F075FD0121204600F03AFB0CB035
:1003A00010BD0EB50525FFF7B3FF39A000F0D9F851
:1003B0002C4C01210522C902204601F057FE20469F
:1003C00001F093FE3A487D21C900006802F006F969
:1003D0002549891E884203D936A000F0C2F8FEE7FD
:1003E0000102090A3848491E416138490723CA6990
:1003F0001202120A44042243CA610021816103618E
:1004000000F08AF9324FBE1C32A000F0AAF869460B
:10041000284600F00CF9684600F0A3F832A000F07E
:10042000A0F83888694600B200F001F9684600F08B
:1004300098F824A000F095F8012430192038C17FE5
:10044000E0B200F055F9641C082CF6DD1E2000F027
:1004500079F9D9E708B50090002801DD401EFAE7D8
:1004600008BD00000024014001000001000400401C
:100470006F1700004B1D00005B05000000300140BD
:1004800000080048300002402438014048000020A5
:1004900046696E616C2061737369676E6D656E7419
:1004A000202D204D6F72736520636F64650A000014
:1004B00034000020416E206572726F72206F63639A
:1004C000757265640A00000000E000E004ED00E0E1
:1004D000000000205472616E736665722031302016
:1004E00062797465733A20002000000010B5012184
:1004F00088B0480400F0BCFD0121880300F0C1FD74
:1005000002216846017703204002069003216846D5
:1005100041770921CC060122204600F0AEFB0122E2
:100520000A21204600F0A9FB06A9204600F039FB6D
:10053000684601F049FBE12040028A4C0090694680
:10054000204601F0EEFA0121204601F05CFB08B0E4
:1005500010BD8449CA691206FCD582492031088140
:10056000704770B504467F4D16E00A2809D18021F6
:10057000284601F0C2FC0028F9D00D21284601F0E0
:10058000D3FB8021284601F0B8FC0028F9D021785F
:100590002846641C01F0C8FB20780028E5D170BD16
:1005A0007048C169090703D5016A08221143016235
:1005B000C1698906FCD56B4820308088C0B270477D
:1005C00070B5684C0646E0690025000703D5206A2F
:1005D000082108432062634B2033E0698006FCD584
:1005E00009E09888C0B2FFF7B4FF988870556D1C79
:1005F000E0698006FCD59888C0B23028F1D15AA0B5
:10060000FFF7AFFF70BD0EB558A103C9009001916F
:1006100058A0006802906846FFF7A3FF02A8FFF702
:10062000A0FF0EBD4011072800D106207047FEB57F
:1006300000240E462546002804DA2D2101254042DB
:10064000317000B26F460A2101F0DEFF30313955BA
:10065000641C00B224B20028F5DC05E0641E24B25C
:10066000385D70556D1C2DB2002CF7DC00207055E4
:100670003046FEBD70B514780125082C00D90570F0
:1006800016780024002E00D104701E78072E00D3A7
:100690000D701D78002D05D00978002903D06D1E3E
:1006A0001D7003E00C701978491C1970007800283F
:1006B000107801D0401E00E0401C107070BD70B575
:1006C000012409260546F6062021304600F0CBFA23
:1006D000EA09D2018021304600F0C7FA6806050E0B
:1006E0002021304600F0BDFA641C082CECDD70BD02
:1006F00070B509240E460546E4061021204600F098
:10070000B2FA2846FFF7DBFF3046FFF7D8FF10218B
:10071000204600F0A6FA70BD10B500210920FFF7B1
:10072000E7FF0F210A20FFF7E3FF07210B20FFF768
:10073000DFFF01210C20FFF7DBFF00210F20FFF777
:10074000D7FF10BD01B50C48009901600168002970
:10075000FCD108BD08480168002902D00168491E83
:1007600001607047003801400A0000001B5B324AFC
:10077000000000001B5B66000C0000207047FEE7D5
:100780007047704710B5FFF7E5FF10BD10B50220A8
:1007900000F063F9002804D024490120486000F0EB
:1007A00065F910BD70B501218E07304601F0DCF807
:1007B000002818D01D4D1E4C2978002060541D487B
:1007C0000321007881406B1C21705A1E911C481C2B
:1007D000FFF750FF69780120884029786054012193
:1007E000304601F0CDF870BD10B5134C0121204604
:1007F00001F0BAF800280AD0104801F07BFCFFF79E
:1008000011FF0C4908800121204601F0B9F810BD04
:1008100010B5012000F088F9002805D0012000F073
:100820003BF8012000F08CF910BD00001000002002
:1008300002000020000000200004004000240140CD
:100840007CB50446850043480121405900F010FC66
:10085000404960000A39085A009001206946087131
:1008600000208871C871032048713B48405900F04E
:1008700098F97CBD374A41000A3A515A364A8000FD
:10088000105881617047334A41000A3A515A324A3E
:1008900080001058018570472F49820089588A8A44
:1008A0002C4B40000A3B185A42408A827047F3B5ED
:1008B00005468700274885B0001FC059012100F078
:1008C000D7FB0121084600F0DCFB002668460673D2
:1008D000C67320486C001438005B02901E4802A9C1
:1008E000001FC05900F05DF90698012823D119486E
:1008F0000E38015D801E005D00F046FC1548123880
:10090000005B009068460671002D01D0082000E0D1
:100910000C206946487101256846857100F0BAF8D7
:100920000C480C38015D68460174032141748574DC
:1009300004A800F0BDF907B0F0BD064A10B54100AB
:10094000143A515A044A8000121F105800F077F9E7
:1009500010BD0000AC2600081C0000200168454ABC
:10096000114001600021016041608160C160424925
:10097000414A0839904202D148680F2205E03E4AB8
:100980001432904204D14868F02210434860704706
:10099000394A2832904203D148680F221202F4E704
:1009A000354A3C32904203D148680F221203ECE7EB
:1009B000314A50329042EAD148680F221204E4E7EB
:1009C00030B503682D4A0C6A13408A684D6922438A
:1009D0000C692C4322438C692243CC6922434C6A24
:1009E00022438C6A22431A430260CA6842600A6842
:1009F00082604968C16030BD002101604160816052
:100A0000C160016141618161C161016241628162D4
:100A100070470029016802D00122114301E0154A04
:100A200011400160704741607047406880B2704774
:100A3000002A026801D00A4300E08A43026070473E
:100A400001460D4A0020083A12680A4200D00120EF
:100A5000704709490839486070470146064A002036
:100A6000083A12680A4200D001207047024908394A
:100A700048607047FEFF0000080002400F80FFFF43
:100A8000324831490160002141608160C1603049D4
:100A90004161704710B583792C490268002B26D03C
:100AA0000B6893430B604A6803689A434A60027973
:100AB000521813680468234313608A6803689A43D2
:100AC0008A60CA6803689A43CA604279102A05D0CE
:100AD00051180A68006802430A6010BD8A680368FA
:100AE0001A438A60CA6800680243CA6010BD007970
:100AF000401801689143016010BD0021016001713F
:100B00000C2242718171704710490A6902430A61DF
:100B100070470E4A0146526900200A4200D0012067
:100B200070470A4948617047084A01461368002027
:100B300052690B400A4202D0002B00D001207047BE
:100B400002494861704700000000940F0004014012
:100B5000FFFF6B00092110B5C906884202D10121AF
:100B60004C0404E04D49884209D101210402204689
:100B700000F099FA0021204600F095FA10BD48498E
:100B8000884202D101210402F1E74649884202D19C
:100B900001210C05EBE744498842EFD101218C0586
:100BA000E5E7F0B50022012423460D6893401D407F
:100BB0009D422AD10D79012D01D0022D12D18768D5
:100BC00055000326AE40B74387604E79AE40856836
:100BD0002E43866085889D43858085888B799340E8
:100BE0001D438580066855000323AB409E43066085
:100BF0000E790768AE403E430660C6689E43C660F5
:100C0000CB79AB40C5682B43C360521C102ACBD3B1
:100C1000F0BD2649016000210171022242718171FB
:100C2000C1717047012208B512040A430092C261E3
:100C3000C1610099C161C169C069009008BD0246E7
:100C4000128A00200A4200D001207047008A7047B3
:100C50000246928A00200A4200D001207047808A12
:100C600070478161704701857047002A01D081611A
:100C7000704701857047818270474B07DB0E9A40B1
:100C8000C90810B589000818016A0F249C40A143C7
:100C90000162016A1143016210BD000000040048B6
:100CA00000080048000C004800140048FFFF000046
:100CB00030B5837801210278002B15D09408174BAA
:100CC000A400E41823689207D50EFF22AA4093439C
:100CD00042789207120EAA401A4322600078C0069A
:100CE000C00E81400E4804E0D006C00E81400C4882
:100CF0008030016030BD0B4A0029116901D00143E9
:100D000000E0814311617047042207490428086903
:100D100002D09043086170471043FBE700E400E015
:100D200000E100E000ED00E000E000E0F7480168CD
:100D30000122114301604168F54A11404160016898
:100D4000F44A11400160016801229204914301605C
:100D500041683F22120491434160C16A09090901B7
:100D6000C162016BFF22543291430163416B490818
:100D700049004163002181607047E44900228A7084
:100D80008870704703460020E0495A090CD0012AB8
:100D90000CD0022A0CD0496BDA06D20E0123934004
:100DA0000B4200D0012070470968F5E7096AF3E7B4
:100DB000496AF1E718B500200524240200901120AB
:100DC000FFF7E0FF0099491C0091A14201D00028E3
:100DD000F5D01120FFF7D6FF002800D0012018BD64
:100DE000CA4A1168F8239943C0000843106070474D
:100DF000C6490028086802D00122104301E04008DB
:100E0000400008607047C14A516BF8239943C00005
:100E1000084350637047BD490028486B02D0012247
:100E2000104301E04008400048637047B74904227E
:100E30000028486B01D0904300E01043486370479E
:100E4000B2490A6A520852000A620A6A04239A43A3
:100E50000A620A6A02430A627047AC490A6A1823A6
:100E60009A430A620A6A02430A627047A749002845
:100E7000486A02D00122104301E040084000486265
:100E8000704710B5A14A53683D242404A34353601E
:100E9000536808430343536010BD01229B49120667
:100EA0000028086801D0104300E0904308607047B4
:100EB000964AD16A090909010143D16270470122AA
:100EC0009249D2040028086801D0104300E0904302
:100ED000086070478D49C87170478C4A516889080D
:100EE0008900014351607047884840680C210840E0
:100EF0007047864A5168F023994301435160704717
:100F0000824A516807231B0299430143516070478D
:100F10007E494A6801239B039A434A604A6883B228
:100F20001A434A600A6B8B159A430A630A6B000CDA
:100F300002430A63704775490A6B40239A430A6368
:100F40000A6B02430A63704770490A6B10239A4385
:100F50000A630A6B02430A6370476C490A6B920882
:100F600092000A630A6B02430A637047F8B5674D43
:100F7000044668680C21684E084003D0042801D05C
:100F8000082801D0266012E0696868680122890299
:100F900012040F0F1040BF1C00281CD0E86A010784
:100FA000090F3046491C01F019FB7843206068683E
:100FB0005A4B0006000F1A5C20680146D140616060
:100FC0006A685205520F9A5CD140A1602A6BD20523
:100FD00005D4534A09E0534847432760E7E76A6866
:100FE000520401D44A0800E08A08E2602A6B5306E2
:100FF0004D4A03D44C4B1233236100E022612B6B2A
:10100000DB0601D4666100E060612B6B9B070FD0AB
:10101000296B8907890F01290CD0286B8007800F65
:10102000022809D0286BC043800700D1A661F8BD13
:10103000A161F8BDA061F8BDA261F8BD33490A6A9B
:1010400002430A62704731490028374A086A01D0D2
:10105000104300E090430862704701222B491204BC
:101060000028086A01D0104300E0904308627047EE
:10107000264A0029516901D0014300E081435161B2
:101080007047224A0029916901D0014300E0814361
:10109000916170471D4A0029D16901D0014300E0E8
:1010A0008143D1617047194A0029916A01D00143F7
:1010B00000E0814391627047144A0029D16801D051
:1010C000014300E08143D1607047104A0029116953
:1010D00001D0014300E08143116170470B4A0029B0
:1010E000517A01D0014300E08143517270470748B3
:1010F000416A01221206114341627047034A0146C8
:10110000926800200A4200D001207047001002407F
:101110000CB8FFF8FFFFF6FE00127A002400002052
:10112000809FD50000093D000080000001498872C1
:10113000EBE7000000100240244801688907890F8E
:10114000016000218160C160016141618169821596
:101150001143816170471D4A116889088900014364
:1011600011607047194A0029116801D0014300E05D
:10117000814311607047154A0029116801D001436D
:1011800000E08143116070478A07130F10B50F22EA
:101190009A408C080D49A40061188C6894438C60B7
:1011A0008A68984002438A6010BD08498A690243F0
:1011B0008A617047054900208969C90500D5012069
:1011C000704702498A6902438A6170470000014002
:1011D000F84910B5884202D10121C41430E0012140
:1011E0008907884206D101210846FFF76EFF0021DA
:1011F000012008E0F049884208D101210220FFF7D0
:1012000064FF00210220FFF760FF10BDEB49884218
:1012100006D101211020FFF758FF00211020F2E72E
:10122000E749884207D1841501212046FFF74DFF89
:1012300000212046E7E7E349884209D101210C0457
:101240002046FFF739FF00212046FFF735FF10BD8C
:10125000DD49884202D101214C04F1E7DB49884293
:10126000F5D101218C04EBE710B50288D14B9842EF
:1012700006D00124A407A04202D0CF4CA04203D143
:101280007024A2434C882243CC4CA04203D0D04CC3
:1012900022400C89224302804A68C2620A88028581
:1012A000984208D0C74A904205D0C74A904202D01F
:1012B000C64A904201D1897A01860121818210BDFE
:1012C0000021C94341600021018001814180817278
:1012D0007047018582827047028870239A430A43CF
:1012E0000280704741627047C1627047406A704730
:1012F000008D704702220029018801D0114300E0CF
:1013000091430180704704220029018801D01143D4
:1013100000E091430180704780220029018801D0BC
:10132000114300E0914301807047028808239A43EB
:10133000028002880A43028070470288A44B1A4048
:10134000028002880A43028070470029018802D087
:101350000122114301E0490849000180704710B59E
:101360000A884B88CC881A438B8823431A430B89FD
:101370001A434B8989891A430A434030828010BD41
:101380000021018041808180C18001814181818172
:10139000704740300029818803D00122D2031143D5
:1013A00001E04904490C8180704730B5028C520835
:1013B00052000284038C8288048B7025AC43A408FD
:1013C0000D88A40025430224A3438C891C434B8829
:1013D0002343784CA04208D07A4CA04205D07A4CE6
:1013E000A04202D0794CA0420DD10824A343CC895D
:1013F0001C4304239C438B882343754C22400C8A56
:1014000014434A8A224382800583896841630384A6
:1014100030BD70B5028C10239A430284048C8288FC
:10142000038B6C4D2B400D782D062D0C1D43202376
:101430009C438B891B051E0C4B8826431B051B0CEC
:101440005C4C3343A04215D18024A343CC892405AE
:10145000240C1C4340239C438B881B051B0C2343FB
:101460005D4C22400C8AA404240C14434A8A920442
:10147000120C22438280058389688163038470BDD6
:1014800030B5028C554B1A400284038C8288848BC1
:101490007025AC43A4080D88A4002543504C23407C
:1014A0000C7B2406240C1C438B781B061B0C23434B
:1014B000404CA04215D14B4C23408C7B2406240C7D
:1014C0001C43494B1C400B791B061B0C2343474C08
:1014D00022400C8A2405240C14434A8A1205120C5B
:1014E0002243828085838968C163038430BD30B51F
:1014F000028C3F4B1A400284048C8388828B354DCA
:101500002A400D782D062D0C15433A4A14400A7BCB
:101510001207120C22438C782407240C1443254A0A
:10152000904205D1344A13400A8A9205120C1343A3
:101530008380858389680164048430BD0021018033
:101540004180818081608181C181018241827047B7
:1015500030B5034618330124058C8C40A54305841F
:10156000002910D008290ED0091F0804400CC0180B
:10157000016807231B039943016001681206120CDE
:101580001143016030BD4808C018016870239943B9
:1015900001600168F4E74163704781637047C1638C
:1015A000704701647047028B70239A430A43028399
:1015B00070470000002C0140000400400010004073
:1015C000002000400040014000440140004801402C
:1015D000FFFC0000FF8C0000FFF30000FFFE000096
:1015E000FFFD0000FFF70000FFFB0000FFCF000041
:1015F000FFEF0000FFDF0000FFBF0000028BF64B93
:1016000009021A4011430183D2E7828B70239A4367
:101610000A438283CCE7828BEF4B09021A401143C5
:101620008183C5E70029818802D00122114301E0AE
:10163000490849008180BBE7028B08239A430A438B
:101640000283B5E7028BE54B09021A40114301837F
:10165000AEE7828B08239A430A438283A8E7828BF2
:10166000DE4B09021A4011438183A1E7028B042358
:101670009A430A4302839BE7028BD94B09021A4023
:101680001143018394E7828B04239A430A438283A4
:101690008EE7828BD24B09021A401143818387E780
:1016A000028B80239A430A43028381E7028B520410
:1016B000520C0902114301837AE7828B80239A43FB
:1016C0000A43828374E7828B5204520C090211434D
:1016D00081836DE7028C02239A430A43028467E701
:1016E000028C08239A430A43028461E7028C202378
:1016F0009A430901114301845AE7028C80239A43DB
:1017000009011143018453E7028CB64B09021A40C8
:10171000114301844CE7028CB04B09021A4011437B
:10172000018445E7028CB04B09031A401143018440
:101730003EE7028908239A43028102890A43028113
:1017400036E710B50123048C8B409C430484038C42
:101750008A401343038410BD10B50423048C8B40CE
:101760009C430484038C8A401343038410BD0422E9
:101770000029818801D0114300E09143818017E75F
:10178000828B9A4B1A408283828B09020A4382839E
:101790000EE7828B0C239A438283828B0A438283D7
:1017A00006E7028B914B1A400283028B09020A431F
:1017B0000283FDE6F0B5048C1026B4430484058B47
:1017C000048C8B4F1B0309013D402B4312021A432B
:1017D000A0239C430C43344302830484F0BD028B5A
:1017E0000C239A430283028B0A430283E0E670B51E
:1017F000048C640864000484058B048C1B0113436F
:10180000F3260A22B54394432B430C4301210C4396
:101810000383048470BDF8B5044608884E888A881E
:101820000B890D4600281DD0042824D00828208CC0
:101830002AD0704908402084A08B278C31036C4E3D
:10184000120230400243180310436B4AA083174032
:101850000F43012109030F432784E9882046FFF73E
:101860008FFFF8BD31462046FFF7C1FFE9882046CB
:10187000FFF7B5FFF8BD31462046FFF79BFFE9882B
:101880002046FFF78EFFF8BD5C4908402084A18BFD
:10189000208C3702F3261B01B14313430B435849F5
:1018A000A3830840FF213843013108432084E9889D
:1018B0002046FFF76EFFF8BD002101804180012224
:1018C0008280C180018173E6F8B50C464988002604
:1018D00001250746002900D10226A288012A00D14D
:1018E0000225208823890028384610D0FFF762FFA0
:1018F000E1883846FFF755FF23892A4631463846A6
:10190000FFF775FFE1883846FFF769FFF8BDFFF77D
:101910006EFFE1883846FFF762FF23892A46314689
:101920003846FFF747FFE1883846FFF73AFFF8BD32
:10193000406B3DE6806B3BE6C06B39E6006C37E6FA
:10194000002A828901D00A4300E08A4382812FE67F
:1019500081822DE60246128A00200A4200D0012030
:1019600026E6C943018223E60246138A00209289B3
:101970000B400A40002B02D0002A00D0012017E6BD
:10198000C943018214E611434030018110E6002A68
:10199000828901D00A4300E08A43828108E6082256
:1019A0000029818801D0114300E091438180FFE547
:1019B0000189C908C9000181FAE5028970239A43A7
:1019C0000A430281F4E510B50446FFF7F6FF2089CB
:1019D00007210843208110BDFF8F0000FFF70000A2
:1019E000FFFB0000FFFD0000FFDF0000FFF3000031
:1019F000FF0C0000FFEF0000FF5F0000FFFE000093
:101A0000FFF5000070B516460D46044660290CD05F
:101A100001223146FFF7EBFE29462046FFF7CDFFB6
:101A2000208907210843208170BD01223146FFF73C
:101A3000C1FEF1E710B504891B021343E4B20B4366
:101A40002343038110BD10B50446FFF7F3FF20893F
:101A5000C108C9000720014370208143014321814F
:101A600010BD10B50446FFF7E5FF20890121890369
:101A70000843208110BD828870239A438280828827
:101A80000A43828094E50289D208D2000281028949
:101A90000A4302818CE5028980239A4302810289EC
:101AA0000A43028184E570B50689048B058CF6082B
:101AB000F6000E430C4906810C40FF2102310C4315
:101AC000AA218D431901114329430483018470BD68
:101AD00080220029818801D0114300E09143818058
:101AE00066E54030018263E5FCFC0000F74910B573
:101AF000884209D101218C032046FFF7DDFA00213D
:101B00002046FFF7D9FA10BDF1498842FBD10121E7
:101B10004C042046FFF7D9FA00212046FFF7D5FAFA
:101B200010BD70B50446006888B00D4640084000FE
:101B300020606168032000038143A8680843606057
:101B40002168E448EA680140686810432A690A434A
:101B500010432060A068032109028843696901439A
:101B6000A1606846FFF702FAD848844201D106987E
:101B700000E0029821680904296801D5490000E0C5
:101B800089001922504300F029FD0546642100F028
:101B900025FD06013009642148432168281A0904FB
:101BA00007D5C0006421323000F018FD4007400F17
:101BB00006E000016421323000F010FD0007000F44
:101BC0003043A08108B070BD4B21C90101600021E4
:101BD000416081600C22C16002614161704710B5B3
:101BE00042680F231B029A4318C923430C684968B3
:101BF0000C4323431343436010BD00210160416047
:101C00008160C16070470029016802D00122114340
:101C100001E04908490001607047002A026801D0CC
:101C20000A4300E08A43026070470122D203002980
:101C3000016801D0114300E0914301607047012227
:101C4000D2020029816801D0114300E091438160F4
:101C500070470122D2040029416801D0114300E0FD
:101C6000914341607047012292040029416801D0EC
:101C7000114300E0914341607047002A426801D05F
:101C80000A4300E08A43426070470122D2030029E0
:101C9000416801D0114300E0914341607047012247
:101CA000D2050029416801D0114300E09143416011
:101CB00070474269120E1206426142690A4342614C
:101CC0007047028A120A12020282028A0A430282C0
:101CD000704702220029016801D0114300E09143BE
:101CE00001607047826803231B059A438260826803
:101CF0000A4382607047012212050029416801D021
:101D0000114300E0914341607047426803235B0543
:101D10009A43426042680A4342607047C1690122A7
:101D2000D2039143C1617047C905C90D0185704750
:101D3000808CC005C00D704742681202120A4260D2
:101D4000426809060A434260704701225203002993
:101D5000016801D0114300E09143016070470268BF
:101D60000123DB029A43026002680A430260704763
:101D7000426810239A43426042680A4342607047B7
:101D8000426820239A43426042680A434260704797
:101D9000012292030029416801D0114300E09143E0
:101DA0004160704708220029816801D0114300E09A
:101DB000914381607047028AD2B20282028A09028C
:101DC0000A430282704720220029816801D0114312
:101DD00000E091438160704710220029816801D0A2
:101DE000114300E0914381607047826807235B04E0
:101DF0009A438260826849040A438260704742695C
:101E00001202120A4261426909060A43426170479E
:101E1000826804239A43826082680A438260704722
:101E200002220029816801D0114300E091438160C2
:101E30007047012292030029816801D0114300E01C
:101E400091438160704782680123DB039A4382607B
:101E500082680A438260704702681F235B059A43C9
:101E60000260026849050A430260704702681F2346
:101E70001B049A430260026809040A430260704727
:101E8000002A826801D00A4300E08A4382607047DA
:101E9000826801235B039A43826082680A438260FE
:101EA000704710B50B041C0E01238B40022C02D08E
:101EB000032C02D002E0001D00E008300168002A77
:101EC00001D0194300E09943016010BD0038014082
:101ED00000440040F3E9FFFF002A028B01D00A43CF
:101EE00000E08A4302837047826801231B039A4300
:101EF000826082680A43826070470246D26900208D
:101F00000A4200D0012070470162704730B50A04D0
:101F1000130E0122144600258C40012B0ED0022BFB
:101F20000ED08368090C2340C0698A401040002B02
:101F300002D0002800D00125284630BD0368F1E713
:101F40004368EFE70A0C01219140016270470000ED
:101F5000854910B5884208D1441501212046FFF774
:101F6000ABF800212046FFF7A7F810BD30B5C368D5
:101F70007E4A8C6813400A680D792243CC686D0351
:101F80002C4322430C69496922430A431A43C26025
:101F900030BD0021016001718160C160016141615A
:101FA00070470029816801D0012200E0022211431C
:101FB00081607047002A026901D00A4300E08A4329
:101FC000026170470122D2030029C16801D0114388
:101FD00000E09143C1607047012292030029C1686B
:101FE00001D0114300E09143C16070470122D20546
:101FF0000029C16801D0114300E09143C1607047DE
:102000000904114301627047C2681F239B069A436B
:102010000A43C2607047012292050029C16801D0BD
:10202000114300E09143C160704701225049D2053D
:102030000028886801D0104300E090438860704712
:1020400001224B4992050028886801D0104300E026
:10205000904388607047012245491206002888682D
:1020600001D0104300E0904388607047836A0B43BF
:10207000836242617047012252030029C16801D086
:10208000114300E09143C16070470122120400290E
:10209000C16801D0114300E09143C1607047012243
:1020A00012030029C16801D0114300E09143C160CF
:1020B0007047826800210123DB071A4382600F23E7
:1020C0001B038268491CD20FD207994201D0002A13
:1020D000F7D18168002901DB006C70470020704750
:1020E0008168102211438160704781680422114386
:1020F00081607047006C80B270470029C16802D0CF
:102100000122114301E049084900C1607047C268DB
:1021100002239A43C260C2680A43C2607047002A21
:10212000426801D00A4300E08A4342607047024699
:102130000020CB0104D5926801231B069A4300E0DE
:1021400012680A4200D001207047016070470246C1
:102150005368002012680B400A4202D0002B00D0C6
:1021600001207047016070470024014003D2FFFF47
:1021700000270140B24910B5884209D184140121D9
:102180002046FEF799FF00212046FEF795FF10BD7F
:10219000AC498842FBD1041401212046FEF795FF8B
:1021A00000212046FEF791FF10BD0021018007228B
:1021B000418012028280C180018141818181C1817F
:1021C00007210182704730B50388C1229201134074
:1021D0000A88CC890D892243CC882C4322434C8920
:1021E00022438C8922431A4302808288964B1A40EC
:1021F0008B88134383800A8A0282028804234988D9
:102200009A4311430180818B904A1140818330BDF4
:102210000021018041808180C18002228260818111
:102220007047F0B505460C4602200021AA8B87B006
:102230000126854BBF3B1A40AA832884AF8BA26836
:10224000022A24D0A088002800D002266846FEF783
:102250008DFEE1880098CA1FFF3AFA3A29D0710131
:1022600000F0BCF90A214843A16800F0B7F9401D0D
:1022700080B20A2100F0B2F9C107C90F401AC003A9
:10228000000C0902821EFE2A01D302200021E288EE
:10229000084302432A8420886188A2890843A188D0
:1022A0001143084301213843C9020843A88307B0FA
:1022B000F0BD000A0A225043A168D6E74022002957
:1022C000018801D0114300E0914301807047102242
:1022D0000029818801D0114300E09143818070473B
:1022E0000029818B03D001229202114301E0584A58
:1022F0001140818370478288534B1A400A43828081
:1023000070478288534B1A40828082880A438280B9
:102310007047012292039142018801D1114301E0EB
:102320004D4A1140018070474C4A9142018803D0C8
:10233000FF220132114300E0114001807047042266
:102340000029818801D0114300E0914381807047CA
:1023500008220029818801D0114300E09143818047
:1023600070470173704781817047007B7047808997
:1023700070470288354B1A40028002880A43028067
:1023800070470029018803D001225203114301E064
:10239000334A114001807047018801221203114322
:1023A00001807047012901D0008B7047808A7047F7
:1023B000008A7047002A828801D00A4300E08A43DD
:1023C000828070478288274B1A40828082880A4325
:1023D00082807047090901238B40002A828899B2C4
:1023E00001D00A4300E08A438280704700890321BC
:1023F000C90208407047008903214902084070471C
:102400000246128900200A4200D001207047C943C9
:102410000181704730B50D0701222D0F1446034688
:10242000AC40002009098A4091B29A88A4B20A40BF
:102430001989214202D0002A00D0012030BD0000BD
:102440000030014000380040FFF00000FFF70000BE
:10245000FFFB0000FFEF0000FFBF0000FFFE0000D9
:10246000FFDF0000FF9F000004488047044800474A
:10247000FEE7FEE7FEE7FEE7FEE7FEE7852400084D
:10248000C100000810B54E480168012211430160E7
:1024900041684C4A1140416001684B4A114001605B
:1024A0000168012292049143016041683F221204B5
:1024B00091434160C16A09090901C162016BFF22B0
:1024C000543291430163416B490849004163002143
:1024D000816000F02EF810BD70B5394D69680C2090
:1024E00001403A483A4C03D0042901D0082901D0D0
:1024F000206014E06A686968012392021B04160FC9
:102500001940B61C002907D0E96A0907090F491CC0
:1025100000F064F87043EBE72E4846432660686895
:102520002B490006000F091D085C2168C14021608D
:1025300070BD1CB500212248019100910268012361
:102540001B041A4302605B000522120204681C404F
:102550000094019C641C0194009C002C02D1019CFD
:102560009442F3D10268920328D5012100911A4ABE
:1025700011211160416841604168416041683F221A
:1025800012049143416041681122120411434160D9
:102590000168012212061143016001688901FCD51E
:1025A0004168890889004160416802221143416005
:1025B00041680907890F0229FAD11CBD00911CBD91
:1025C000001002400CB8FFF8FFFFF6FE00127A0080
:1025D0003400002000093D000020024030B50B46C9
:1025E000014600202022012409E00D46D5409D42ED
:1025F00005D31D469540491B254695404019154673
:10260000521E002DF1DC30BD70B500242546002897
:1026100001DA01244042002901DA01254942FFF78D
:10262000DDFFAC4200D04042002C00D0494270BDDA
:10263000D2B201E00270401C491EFBD2704700225A
:10264000F6E710B513460A4604461946FFF7F0FFB1
:10265000204610BD064C0125064E05E0E36807CC78
:102660002B430C3C98471034B442F7D3FDF72CFDB4
:10267000B4260008D426000802E008C8121F08C1CA
:10268000002AFAD170477047002001E001C1121FF3
:10269000002AFBD17047000001000100000000008B
:1026A0000500000200010000000002000000080018
:1026B00000000800D42600080000002048000000A8
:1026C000782600081C27000848000020100400009D
:1026D0008826000800000000000000000000000044
:1026E000000000000501000000000000000000489C
:1026F0000008004800080048000000000102030430
:102700000102030406070809006CDC020000000057
:0C27100000000000010203040607080995
:04000005080000C12E
:00000001FF
